:100000000C945D000C9485000C9485000C94850084
:100010000C9485000C9485000C9485000C9485004C
:100020000C9485000C9485000C9485000C9485003C
:100030000C9485000C9485000C9485000C9485002C
:100040000C9488030C9485000C94F8030C94D20350
:100050000C9485000C9485000C9485000C9485000C
:100060000C9485000C9485000000000024002700FB
:100070002A0000000000250028002B0004040404CE
:100080000404040402020202020203030303030342
:10009000010204081020408001020408102001021F
:1000A00004081020000000080002010000030407FB
:1000B0000000000000000000510811241FBECFEF17
:1000C000D8E0DEBFCDBF11E0A0E0B1E0E6E1F1E1B4
:1000D00002C005900D92AC31B107D9F722E0ACE136
:1000E000B1E001C01D92A23EB207E1F710E0CDE5FC
:1000F000D0E004C02197FE010E947E08CC35D107D4
:10010000C9F70E942A040C9489080C94000090E01E
:10011000FC01EC55FF4F2491FC01E057FF4F349157
:10012000FC01E458FF4FE491EE2309F43CC0222384
:1001300039F1233091F038F42130A9F0223001F563
:1001400084B58F7D12C0273091F02830A1F0243083
:10015000B9F4809180008F7D03C0809180008F77FB
:10016000809380000DC084B58F7784BD09C08091D5
:10017000B0008F7703C08091B0008F7D8093B00076
:10018000F0E0EE0FFF1FEE58FF4FA591B4919FB71F
:10019000F894611104C08C913095382302C0EC9121
:1001A0003E2B3C939FBF0895CF93DF9390E0FC01DB
:1001B000E057FF4F2491FC01E458FF4F84918823BE
:1001C00061F190E0880F991FFC01E859FF4FC5913C
:1001D000D491FC01EE58FF4FA591B491611109C073
:1001E0009FB7F8948881209582238883EC912E23F1
:1001F0000BC0623061F49FB7F8948881322F30953C
:1002000083238883EC912E2B2C939FBF06C08FB73E
:10021000F894E8812E2B28838FBFDF91CF9108952A
:100220003FB7F8948091410290914202A09143021D
:10023000B091440226B5A89B05C02F3F19F0019646
:10024000A11DB11D3FBFBA2FA92F982F8827820F5C
:10025000911DA11DB11DBC01CD0142E0660F771FAC
:10026000881F991F4A95D1F708958F929F92AF9258
:10027000BF92CF92DF92EF92FF926B017C010E94BE
:1002800010014B015C01C114D104E104F104F1F04F
:100290000E941001DC01CB0188199909AA09BB0948
:1002A000883E9340A105B10570F321E0C21AD10840
:1002B000E108F10888EE880E83E0981EA11CB11CAD
:1002C000C114D104E104F10419F7DDCFFF90EF90E0
:1002D000DF90CF90BF90AF909F908F9008951F9325
:1002E000CF93DF93182FC3E0D0E061E0812F0E940D
:1002F00087006EE170E080E090E00E94350160E0F0
:10030000812F0E9487006EE170E080E090E00E9403
:100310003501219751F7DF91CF911F910895CF9229
:10032000DF92EF92FF920F931F93CF93DF936C01B5
:100330007A018B01C0E0D0E0CE15DF0581F0D80155
:100340006D918D01D601ED91FC910190F081E02D30
:10035000C6010995892B11F02196EECF7E01C701C8
:10036000DF91CF911F910F91FF90EF90DF90CF9091
:100370000895089580E090E00895FC01538D448D28
:10038000252F30E0842F90E0821B930B541710F040
:10039000CF96089501970895FC01918D828D98174D
:1003A00061F0828DDF01A80FB11D5D968C91928D59
:1003B0009F5F9F73928F90E008958FEF9FEF089556
:1003C000FC01918D828D981731F0828DE80FF11D1F
:1003D000858D90E008958FEF9FEF0895FC01918D3A
:1003E000228D892F90E0805C9F4F821B91098F7333
:1003F0009927089585E492E00E94EE0121E0892B7F
:1004000009F420E0822F0895FC01848DDF01A80FFC
:10041000B11DA35ABF4F2C91848D90E001968F732C
:100420009927848FA689B7892C93A089B1898C914B
:10043000837080648C93938D848D981306C002889A
:10044000F389E02D80818F7D80830895EF92FF9264
:100450000F931F93CF93DF93EC0181E0888F9B8DE7
:100460008C8D981305C0E889F989808185FD26C0A7
:10047000F62E0B8D10E00F5F1F4F0F731127E02E2C
:100480008C8DE8120CC00FB607FCFACFE889F98909
:10049000808185FFF5CFCE010E940402F1CF8B8DC4
:1004A000FE01E80FF11DE35AFF4FF0829FB7F89469
:1004B0000B8FEA89FB89808180620AC09FB7F8941C
:1004C000EE89FF896083E889F9898081837080647F
:1004D00080839FBF81E090E0DF91CF911F910F91CA
:1004E000FF90EF900895682F85E492E00C94260227
:1004F000CF93DF93EC01888D8823C9F0EA89FB89CB
:10050000808185FD05C0A889B9898C9186FD0FC0C1
:100510000FB607FCF5CF808185FFF2CFA889B98996
:100520008C9185FFEDCFCE010E940402E7CFDF91D1
:10053000CF91089580E090E0892B29F00E94FA0184
:1005400081110C9400000895809138029091390235
:100550000196909339028093380285E10C947302DE
:1005600020912B0130912C0180913602909137021D
:100570002032310511F4807F08952034310511F4C3
:10058000807E08952038310511F4807C089521156E
:10059000314009F48078089585E492E00E94EE01EC
:1005A000892BD1F385E492E00E94CC010895CF938A
:1005B000C82F0E94CC02803241F484E10E94730271
:1005C0008C2F0E94730280E10AC0809138029091C2
:1005D00039020196909339028093380285E1CF91D8
:1005E0000C9473020E94CC02803229F484E10E94B0
:1005F000730280E10AC0809138029091390201961D
:10060000909339028093380285E10C9473020F9322
:100610001F93CF93DF938C01C3E3D1E0CE018353CB
:1006200091408017910724F40E94CC028993F6CF61
:10063000DF91CF911F910F9108958EBD00000DB4F1
:1006400007FEFDCF8EB508951F93CF93DF93162F2E
:10065000D42FC22F0E941D03812F0E941D038D2FB6
:100660000E941D038C2FDF91CF911F910C941D03CD
:10067000EF92FF920F931F93CF93DF93EC018B01C7
:10068000CB010E94070360E087E00E94870083E3BC
:10069000E82E81E0F82E0C0F1D1FC017D10781F046
:1006A000F70121917F014C2F6D2F80EC0E942403D4
:1006B0006DE270E080E090E00E9435012196EDCF80
:1006C00061E087E00E94870080E1DF91CF911F9178
:1006D0000F91FF90EF900895CF93DF93D82FC92FFC
:1006E00060E087E00E94870020E04D2F6C2F8CE4B3
:1006F0000E9424036EE170E080E090E00E943501EA
:1007000061E087E0DF91CF910C9487000E9484081C
:100710001F920F920FB60F9211242F933F938F9336
:100720009F93AF93BF9380913D0290913E02A09121
:100730003F02B091400230913C0223E0230F2D375D
:1007400020F40196A11DB11D05C026E8230F0296D5
:10075000A11DB11D20933C0280933D0290933E0267
:10076000A0933F02B09340028091410290914202D7
:10077000A0914302B09144020196A11DB11D809346
:10078000410290934202A0934302B0934402BF916E
:10079000AF919F918F913F912F910F900FBE0F902E
:1007A0001F9018951F920F920FB60F9211242F933E
:1007B0003F934F935F936F937F938F939F93AF93E9
:1007C000BF93EF93FF9385E492E00E940402FF91B0
:1007D000EF91BF91AF919F918F917F916F915F91B9
:1007E0004F913F912F910F900FBE0F901F90189532
:1007F0001F920F920FB60F9211242F938F939F93F6
:10080000EF93FF93E0915502F09156028081E091C1
:100810005B02F0915C0282FD12C0908180915E02C9
:100820008F5F8F7320915F02821751F0E0915E021B
:10083000F0E0EB5BFD4F958F80935E0201C08081FD
:10084000FF91EF919F918F912F910F900FBE0F907D
:100850001F901895789484B5826084BD84B58160BA
:1008600084BD85B5826085BD85B5816085BD80917B
:100870006E00816080936E001092810080918100F3
:1008800082608093810080918100816080938100EB
:10089000809180008160809380008091B1008460AD
:1008A0008093B1008091B00081608093B00080910E
:1008B0007A00846080937A0080917A0082608093CD
:1008C0007A0080917A00816080937A0080917A002A
:1008D000806880937A001092C100E0915502F091F7
:1008E000560282E08083E0915102F0915202108220
:1008F000E0915302F091540287E6808310925D02EA
:10090000E0915902F0915A0286E08083E09157020B
:10091000F0915802808180618083E0915702F091CC
:100920005802808188608083E0915702F0915802DC
:10093000808180688083E0915702F0915802808125
:100940008F7D808361E087E00E94D40087E090E0A3
:100950000E946F0161E088E00E94D40088E090E08E
:100960000E946F0161E089E00E94D40089E090E07C
:100970000E946F010DEA202E00E0302E8BE8A82E99
:10098000BB24B39488248394912C26E8422E20E043
:10099000522E3AE9632E30E0732E80913A02909104
:1009A0003B02892B11F061E001C060E087E00E940A
:1009B00087008091380290913902892B11F061E013
:1009C00001C060E088E00E9487002FB7F894809112
:1009D0003D0290913E02A0913F02B09140022FBF94
:1009E00040911C0150911D0160911E0170911F01E9
:1009F0008C019D01041B150B260B370B08321105CA
:100A00002105310508F46BC080931C0190931D01F2
:100A1000A0931E01B0931F019091010180EE890FF8
:100A2000813A28F080910001819580930001109116
:100A30000001190F10930101C12FD0E061E089E09E
:100A40000E94D400111102C060E003C01F3F29F4CE
:100A500061E089E00E94870042C0F1018491833007
:100A6000F9F048F48130B9F08230A1F584B58062A4
:100A700084BD18BD34C08730E9F0883019F1843066
:100A800049F580918000806280938000D0938B0034
:100A9000C0938A0024C084B5806884BD17BD1FC080
:100AA00080918000806880938000D0938900C093FB
:100AB000880015C08091B00080688093B0001093CA
:100AC000B3000DC08091B00080628093B00010939D
:100AD000B40005C0C038D1050CF0BACFB5CF85E45D
:100AE00092E00E94EE01892B09F4D8C20E94CC0248
:100AF000813509F465C2B0F4813409F44FC040F483
:100B00008033B1F18133C9F1803209F0B5C2AAC294
:100B1000853409F4DBC0803509F4DDC0823409F086
:100B2000ABC251C0813609F454C1C0F4863509F412
:100B300036C2803609F44BC1853509F09DC20E944A
:100B4000CC02C82F0E94CC0290E0982F88278C0FEF
:100B5000911D909337028093360260C2843709F466
:100B6000C5C1853709F45DC2843609F085C234C138
:100B7000109239021092380251C20E94CC02803287
:100B800009F070C284E10E94730247E050E064E122
:100B900071E085E492E00E948F0162C20E94CC0263
:100BA000813859F020F4803861F482E006C282383E
:100BB00031F0833931F483E500C281E0FEC182E186
:100BC000FCC180E0FAC184E190E00E94070320911B
:100BD0003301209320018091340180932101809181
:100BE0003501809322018091360180932301809109
:100BF00037018093240180913801809325018091F1
:100C000039018093260180913A01809327018091D8
:100C10003B018093280180913D0190E0982F882727
:100C200030913E01830F911D90932A0180932901F9
:100C300080913F0190E0982F882730914001830FE9
:100C4000911D90932C0180932B018091410190E0A4
:100C5000982F882730914201830F911D90932E0188
:100C600080932D018091430190E0A0E0B0E0BA2F85
:100C7000A92F982F882730914401830F911DA11D22
:100C8000B11DDC01992788274091450150E0542F80
:100C90004427052E000C660B770B840F951FA61FAB
:100CA000B71F30914601830F911DA11DB11D809387
:100CB0002F0190933001A0933101B093320181E074
:100CC000203E08F480E080933502A8C185E090E0E2
:100CD0000E940703A3C180913A0290913B02892BA5
:100CE00009F09CC1609135028AE00E94870061E0B2
:100CF0008AE00E94D400CFB7F89480913402811129
:100D000026C0F2018491F3012491E82FF0E0EE0F68
:100D1000FF1FE859FF4FA591B4919C91822F892321
:100D200021F461E08AE00E94870061E08AE00E948D
:100D3000D4008CB580618CBD8CB580648CBD61E0C5
:100D40008DE00E94D40061E08BE00E94D40080918D
:100D500034028F5F80933402CFBF809133028823A7
:100D600051F08FB7F89490913302913021F49DB3F4
:100D70009DB39DBB8FBF83E58CBD1DBC60E08DE046
:100D80000E94870064E170E080E090E00E943501FD
:100D9000C091350261E06C278AE00E948700C5019E
:100DA0000197F1F76C2F8AE00E94870062E370E000
:100DB00080E090E00E94350120E040E063E58CEAAD
:100DC0000E94240390923B0280923A0227C10E9423
:100DD000CC020E94CC0222C10E94CC02C82F0E94E9
:100DE000CC02D0E0DC2FCC27C80FD11D0E94CC0252
:100DF000863409F043C0CE010E9407030E94CC0252
:100E0000803209F02FC184E10E9473020E94B00277
:100E10006C0133E3E32E31E0F32EC701835391409D
:100E20008C179D073CF50E94B0028C159D0531F092
:100E3000C6010E946C030E94B0026C010091360250
:100E400010913702F7012081402F612F80E40E942A
:100E50002403F7012181402F612F88E40E9424039D
:100E60000F5F1F4F1093370200933602F2E0EF0E30
:100E7000F11CD3CFC6010E946C03F2C0853409F087
:100E80008CC080912D0190912E018C179D0758F4F4
:100E900080913802909139020196909339028093A3
:100EA0003802C1E117C00091360210913702000FDD
:100EB000111FC132D10548F060E270E0C8010E9404
:100EC0003803005E1F4FA097F4CFBE01C8010E94F7
:100ED0003803C0E10E94CC02803229F484E10E94F0
:100EE00073028C2FD9C00E94A402D8C00E94CC02E9
:100EF000C82F0E94CC02082F0E94CC02182F0E94FB
:100F0000CC02803219F00E94A402C8C0D0E0DC2FCD
:100F1000CC27C00FD11D84E10E947302163421F545
:100F2000E12CF12CEC16FD060CF09AC00091360273
:100F30001091370220E0402F612F80E20E942403AD
:100F40000E94730220E0402F612F88E20E94240358
:100F50000E9473020F5F1F4F1093370200933602F7
:100F600002E0E00EF11CDECF1534B9F40091360238
:100F700010913702000F111FC00FD11FC017D107EA
:100F800009F46EC02FEF402F612F80EA0E942403E6
:100F90000E9473020F5F1F4FF1CF81E17DC084E09B
:100FA00090E00E9407032091360140913501609145
:100FB0003401809133010E9424030E94D7026EC045
:100FC00010923902109238029FB7F894809134023F
:100FD000882319F08150809334028091340281116A
:100FE00005C08CB58F7B8CBD109233029FBF60E033
:100FF0008BE00E94D40060E08DE00E94D4006091FC
:10100000350281E068278AE00E94870060E08AE07C
:101010000E94D40010923B0210923A020E94F20207
:101020003DC00E94CC028032E9F484E10E94730248
:1010300020E040E060E080E30E9424030E9473020D
:1010400020E041E060E080E30E9424030E947302FC
:1010500020E042E060E080E30E9424030E947302EB
:1010600080E11AC0809138029091390201969093E4
:101070003902809338020FC0809138029091390272
:10108000019690933902809338020E94CC028032FC
:1010900011F482E101C085E10E9473020E949A026C
:1010A0007CCCE5E4F2E01382128288EE93E0A0E0CB
:1010B000B0E084839583A683B78386E091E0918333
:1010C000808385EC90E09587848784EC90E0978717
:1010D000868780EC90E0918B808B81EC90E0938B05
:1010E000828B82EC90E0958B848B86EC90E0978BE2
:1010F000868B118E128E138E148E0895EE0FFF1FA5
:101100000590F491E02D099481E090E0F8940C941E
:061110008908F894FFCFEE
:1011160008800000000026028F01BD017802EE0162
:0C112600CC01E00141565220495350001A
:00000001FF
